:020000040800F2
:1000000008390020E9150008CF050008D1050008CF
:10001000D5050008D9050008DD050008000000002E
:10002000000000000000000000000000E1050008E2
:10003000E305000800000000E5050008E7050008EA
:10004000031600080316000803160008031600082C
:10005000031600080316000803160008031600081C
:100060000316000803160008FF0500080316000821
:1000700003160008031600080316000803160008FC
:1000800003160008031600080316000803160008EC
:1000900003160008031600080316000803160008DC
:1000A00003160008031600080316000803160008CC
:1000B00003160008031600080316000803160008BC
:1000C00003160008031600080316000803160008AC
:1000D0000316000803160008350F00080316000871
:1000E000031600080316000803160008031600088C
:1000F000031600080316000803160008031600087C
:10010000031600080316000803160008031600086B
:10011000031600080316000803160008BD150008A2
:100120000316000819060008031600080316000845
:10013000031600080316000803160008031600083B
:10014000031600080316000803160008031600082B
:10015000031600080316000803160008031600081B
:10016000031600080316000803160008031600080B
:100170000316000803160008E90500080316000826
:10018000031600080316000800F002F800F096F8C5
:100190000AA090E8000C82448344AAF10107DA45E2
:1001A00001D100F08BF8AFF2090EBAE80F0013F09E
:1001B000010F18BFFB1A43F00103184708BC0000E9
:1001C00028BC0000103A24BF78C878C1FAD852077A
:1001D00024BF30C830C144BF04680C6070470000C1
:1001E0000023002400250026103A28BF78C1FBD840
:1001F000520728BF30C148BF0B6070476E2909F015
:10020000C287702909F0788466290BF0728165290C
:100210000BF06F8167290BF06C816129AFF30080CF
:1002200003681B0A28BF41F08001692909F0E683B1
:10023000642909F0E383752909F0E0836F290AF046
:100240009D80782909F04484E9290AF03580E42961
:100250000AF03280F5290AF02F80EF290AF09A80FF
:10026000F82909F043840368DB0928BF41F08001C5
:1002700063290AF0568373290AF05B83E3290AF0A5
:100280006683F3290AF06B83002070471FB50BF0DB
:100290002BF99DE8030009F0A9FE0AF001FC040017
:1002A000002000210BF0F4F8401C606000200021C9
:1002B0000BF004F9E0601FBD10B510BD0AF0CAFBD9
:1002C0001146FFF7E3FF00F050F80AF0ADFC03B46D
:1002D000FFF7F2FF03BC0AF0DBFC0000704708B533
:1002E00002F028F9012002F04EF902F071F901281C
:1002F00022D1002002F0BFF9022002F0F5F900201F
:1003000002F002FA4FF4A05002F008FA4FF48050C5
:1003100002F00EFA072002234FF4A8720821009081
:10032000C80402F098F9012002F0A5F900BF3920B5
:1003300002F030F90028FAD008BD1CB501210820D0
:1003400002F0D2FA4FF48050009001208DF80400A2
:1003500000208DF806008DF8070003208DF80500B9
:1003600069463E4801F0F6FD1CBD70B50025FF262C
:10037000FFF7B5FF00F0CAF800F069FD38480068E3
:1003800005F06DFC044624B936A0FFF7A7FF002056
:1003900070BD08F053FF39A006F0C3FB3DA006F086
:1003A000C0FB42A006F0BDFB45A006F0BAFB49A089
:1003B00006F0B7FB4DA006F0B4FB00F049F900F0E1
:1003C00070FB042000F01DFC01214C4801F046FCAC
:1003D000012001F00CFB012001F018FB3CE008F0CB
:1003E00071FF4748007801280DD14648007810F089
:1003F000800F05D04348007840F020004149087044
:1004000000203F49087016480068D0F8F40810F43E
:10041000006F0DD000BF12480068D0F8F40820F437
:1004200000610F480068C0F8F41800BF08F0A0FF92
:10043000354890F8010110F0010F0DD0324806F058
:1004400070FB314890F8010120F001002E4981F83D
:100450000101002081F80001C1E70000000C02400A
:1004600030000020576C616E20696E6974206661EF
:10047000696C656421210D0A000000007365742019
:10048000737369642057694669546573745F416486
:10049000686F6300736574206E6574776F726B7438
:1004A000797065206164686F630000007365742073
:1004B000617574686D6F6465206F70656E00000013
:1004C00073657420656E6372796D6F6465207765FE
:1004D00070000000736574206B65796173636969EE
:1004E0002031323334353637383930006374726C2A
:1004F00020636F6E6E656374000000002864024024
:1005000007000020940000200C0A002010B56FF0B6
:10051000040001F0E2F9294800682949B0FBF1F034
:10052000284908800846008800EB4001C1EBC01054
:100530004FF6FF7101EAC0002349088010BD214930
:10054000098841434FF0E022516100219161114639
:10055000096941F00101116100BF4FF0E021096913
:1005600011F4803FF9D04FF0E021096921F0010139
:100570004FF0E02211610021916170471249098812
:1005800041434FF0E0225161002191611146096918
:1005900041F00101116100BF4FF0E021096911F440
:1005A000803FF9D04FF0E021096921F001014FF0BF
:1005B000E022116100219161704700000C000020D1
:1005C00000127A00000000200200002070477047EF
:1005D00000BFFEE700BFFEE700BFFEE700BFFEE78B
:1005E000704770477047704710B5012001F02FFA2F
:1005F00020B101200F49087001F03FFA10BD10B57D
:100600000D48006840F010000B4908600B48006876
:100610000B490968884710BD10B50A490A4801F01E
:10062000C6FB30B10749084801F0EAFB0120074941
:10063000087010BD04000020143C01403000002070
:1006400038000020008800102864024007000020C5
:1006500000B587B00121172002F046F90D220421D0
:10066000F94801F002FD0D220621F74801F0FDFCDA
:100670000D220621F54801F0F8FC0D220721F34870
:1006800001F0F3FC0D220521F14801F0EEFC0D22F2
:100690000621EF4801F0E9FC0D220621ED4801F0AA
:1006A000E4FC0D220721EB4801F0DFFC0D220021C4
:1006B000E74801F0DAFC0D220121E54801F0D5FC04
:1006C0000D220421E24801F0D0FCC0200590022058
:1006D0008DF8180003208DF8190000208DF81A00FD
:1006E00001208DF81B0005A9DA4801F033FC7320C6
:1006F000059005A9D64801F02DFCC020059005A95C
:10070000D24801F027FC5020059005A9CE4801F001
:1007100021FC0121480502F030F90121022002F0FC
:10072000E3F804220821C94801F09FFC04220921B2
:10073000C64801F09AFC4FF44070059002208DF8F5
:10074000180000208DF8190001208DF81A000020F3
:100750008DF81B0005A9BD4801F0FCFBBE4801F067
:10076000BDFC0020ADF808004BF6FF70ADF80A00A4
:10077000FE20ADF80C004FF48060ADF80E000001D3
:10078000ADF8100047F23050019001A9B24801F0D5
:10079000CEFC0121B04801F046FD07B000BD70B5A8
:1007A00005460E4642F210740121AB4801F05EFD91
:1007B00000BF05E02000A4F1010401D1FF2070BDBD
:1007C000A649A54801F04AFE0028F3D00022602186
:1007D000A14801F063FD42F2107405E02000A4F18D
:1007E000010401D1FF20EAE79D499B4801F036FE54
:1007F0000028F3D0E9B2984801F0D4FD42F2107419
:1008000005E02000A4F1010401D1FF20D7E79449BD
:10081000891C914801F022FE0028F2D031468E4812
:1008200001F0C0FD42F2107405E02000A4F10104C3
:1008300001D1FF20C3E78A49891C874801F00EFED9
:100840000028F2D00121844801F01CFD0020B6E709
:1008500010B50121FF20FFF7A2FF80211220FFF732
:100860009EFF10BD70B5054642F2107400260121AE
:10087000794801F0FBFC00BF05E02000A4F1010471
:1008800001D1FF2070BD7549734801F0E7FD0028D4
:10089000F3D000226121704801F000FD42F2107493
:1008A00005E02000A4F1010401D1FF20EAE76C4932
:1008B000694801F0D3FD0028F3D0E9B2664801F0A1
:1008C00071FD42F2107405E02000A4F1010401D191
:1008D000FF20D7E76249891C5F4801F0BFFD00286F
:1008E000F2D05D481430008840F480605A491431D9
:1008F00008800121584801F0B9FC42F2107405E06B
:100900002000A4F1010401D1FF20BBE75349524864
:1009100001F0A4FD0028F3D0012261214E4801F02E
:10092000BDFC42F2107405E02000A4F1010401D1E5
:10093000FF20A7E74949491C474801F08FFD0028DF
:10094000F2D00021444801F0B1FC42F2107405E0FD
:100950002000A4F1010401D1FF2093E73F493F317A
:100960003D4801F07BFD0028F2D001213A4801F01A
:1009700089FC394801F018FD0646304682E710B57B
:1009800004460121FF20FFF70AFF1C20FFF76AFF42
:1009900020701D20FFF766FF60700A20FFF762FFDE
:1009A000A0700B20FFF75EFFE07010BD10B594B093
:1009B00004460121084601F0A8FF0020ADF84000E0
:1009C000ADF842002020ADF844008020ADF846008C
:1009D0000020ADF84800ADF84A00ADF84C00012108
:1009E000880501F081FF1F4801F05CF84FF00070AE
:1009F00001901D4802901D480390002004900120A2
:100A000005900020069007904FF480500890400019
:100A1000099040110A9040020B9004200C90032092
:100A20000D9000200E900F9014B1012C2BD11FE0DF
:100A30008020ADF8460010A800F07AFF01A909480F
:100A400001F0D2F82AE00000000002400004024059
:100A50000010024000080240005400400100030062
:100A60008200070028640240280005500000026050
:100A70000020ADF8460010A800F05AFF01A9E54893
:100A800001F0B2F80AE08020ADF8460010A800F0AE
:100A90004FFF01A9DF4801F0A7F800BF00BF14B065
:100AA00010BD00B595B00121084601F02EFF0020D1
:100AB000ADF84400ADF846002020ADF84800002015
:100AC000ADF84A00ADF84C00ADF84E00ADF850005E
:100AD00011A800F02DFF012000F07AFF0121880508
:100AE00001F002FFCB4800F0DDFF4FF000700290F4
:100AF000C9480390C9480490002005904FF49670AF
:100B00000690002007904FF48060089080000990C4
:100B100080000A9080110B9040020C9004200D90F0
:100B200003200E9000200F9010900022BC49B9487D
:100B300001F0BBF80121B74801F0C3F802A9B5489C
:100B400001F052F80020B74908704FF4E06000F05F
:100B500071FE4E208DF8040001208DF805008DF8FF
:100B600006008DF8070001A800F069FE0121084683
:100B700000F05EFF39208DF8040001208DF805009B
:100B800004208DF8060001208DF8070001A800F070
:100B900056FE012210219F4801F0ECF815B000BD6F
:100BA00010B5FFF755FEC820FFF7E8FC00240CE065
:100BB0009D4A02EB440251789B4A12F81400FFF759
:100BC000EEFD0220FFF7DAFC641CB4F5A47FEFD33E
:100BD00010BD10B5FFF73CFEC820FFF7CFFC002486
:100BE0000CE0924A02EB44025178904A12F8140049
:100BF000FFF7D5FD0220FFF7C1FC641CDC2CF0D30D
:100C000010BD70B50546FFF723FEC820FFF7B6FC00
:100C1000002409E0864A02EB44025178844A12F823
:100C20001400FFF7BCFD641CBE2CF3D3002409E0C4
:100C3000804A02EB440251787E4A12F81400FFF712
:100C4000AEFD641C092CF3D30121FF20FFF7A7FDA3
:100C500000211520FFF7A3FD002409E0764A02EBEE
:100C600044025178744A12F81400FFF798FD641C8E
:100C7000082CF3D36420FFF781FC022D06D0032D4E
:100C800013D0042D20D0052D3CD12CE0002409E008
:100C90006A4A02EB44025178684A12F81400FFF7DE
:100CA0007EFD641C272CF3D33BE0002409E0644A5A
:100CB00002EB44025178624A12F81400FFF76FFD0C
:100CC000641C272CF3D32CE0002409E05D4A02EBDE
:100CD000440251785B4A12F81400FFF760FD641C6F
:100CE000272CF3D31DE0002409E0574A02EB44020D
:100CF0005178554A12F81400FFF751FD641C272C57
:100D0000F3D30EE0002409E04C4A02EB4402517890
:100D10004A4A12F81400FFF742FD641C272CF3D353
:100D200000BF00BF70BD10B504460021FF20FFF7D3
:100D300036FD00217C20FFF732FD04217D20FFF7E6
:100D40002EFD09217C20FFF72AFD21467D20FFF79B
:100D500026FD00217D20FFF722FD10BD10B50446C1
:100D60000021FF20FFF71BFD00217C20FFF717FD6E
:100D700021467D20FFF713FD05217C20FFF70FFDA5
:100D800080217D20FFF70BFD80217D20FFF707FDEF
:100D900010BD70B504460D460021FF20FFF7FFFC93
:100DA00000217C20FFF7FBFC18217D20FFF7F7FCDA
:100DB00005217C20FFF7F3FC21467D20FFF7EFFCA7
:100DC00029467D20FFF7EBFC70BD70B504460D464B
:100DD0000021FF20FFF7E3FC00217C20FFF7DFFC70
:100DE00004217D20FFF7DBFC07217C20FFF7D7FCE7
:100DF00020217D20FFF7D3FC21467D20FFF7CFFC8B
:100E000029467D20FFF7CBFC06217D20FFF7C7FC9C
:100E100070BD00002864024028000550AC0000208E
:100E20005C05002007000020F6B4000886B7000823
:100E30003EB90008BABA0008DEBA0008EEBA0008E7
:100E40003CBB00088ABB0008D8BB0008704700B54F
:100E500087B00121084601F047FD0121480401F057
:100E60008CFD07220221C34801F0FFF8072203216D
:100E7000C04801F0FAF80420059002208DF818000F
:100E80008DF8190000208DF81A0001208DF81B0044
:100E900005A9B84801F05EF80820059002208DF8F9
:100EA000180005A9B34801F055F84FF4E13001905E
:100EB0000020ADF80800ADF80A00ADF80C00ADF860
:100EC00010000C20ADF80E0001A9AB4801F0B3FEF4
:100ED0004FF4E06000F0AEFC26208DF80000012009
:100EE0008DF8010000208DF8020001208DF803002C
:100EF000684600F0A4FC012240F225519E4801F012
:100F0000D8FF01219C4801F01EFF07B000BD10B5BD
:100F100004460BE014F8011B974801F03FFF00BFA7
:100F20004021954801F0EAFF0028F9D020780028F8
:100F3000F0D110BD10B540F225518F4801F0F4FFFB
:100F400000287CD08C4801F02DFFC4B20A2C0ED0B2
:100F500005DCF4B1032C1DD0082C42D131E00D2C5E
:100F600004D0152C1CD07F2C3BD12BE000BF0020DF
:100F7000824991F80011814A505481A0FFF7C7FFC0
:100F80007E4890F8010140F001007C4981F80101A0
:100F900054E053E000207949087081F800014DE0E9
:100FA00009E078A0FFF7B3FF744890F80001401EF5
:100FB000724981F80001714890F800010028F0D1D1
:100FC0003CE000BF6FA0FFF7A2FF6C4890F8000163
:100FD00030B16A4890F80001401E684981F800016C
:100FE0002CE0202C29DB7E2C27DC644890F80001C3
:100FF0007F2817DA614890F8000160490C540846D0
:1010000090F80001401C81F8000121465A4801F087
:10101000C5FE00BF8021584801F070FF0028F9D0BC
:101020000BE00CE00721544801F0B8FE00BF80211E
:10103000514801F063FF0028F9D000BF00BF10BD88
:101040000FB400B5C1B043A800904FF4807101A85F
:10105000009B429A08F078FC0020009001A8FFF75E
:1010600056FF41B05DF814FB10B5474800F039FE5B
:1010700001283FD1002439E0444830F8240081B2EF
:101080003D4801F08BFE00BF80213B4801F036FF58
:101090000028F9D03D4850F82400C0F30F2136480D
:1010A00001F07CFE00BF8021334801F027FF0028BB
:1010B000F9D0364850F82400010C2F4801F06EFE9C
:1010C00000BF80212C4801F019FF0028F9D02F48DB
:1010D00050F82400010E284801F060FE00BF802176
:1010E000254801F00BFF0028F9D0641CB4F5967F69
:1010F000C2D33EE0002439E0254830F8240081B214
:101100001D4801F04BFE00BF80211B4801F0F6FE98
:101110000028F9D01E4850F82400C0F30F211648CB
:1011200001F03CFE00BF8021134801F0E7FE0028DB
:10113000F9D0174850F82400010C0F4801F02EFE9A
:1011400000BF80210C4801F0D9FE0028F9D01048DA
:1011500050F82400010E084801F020FE00BF802155
:10116000054801F0CBFE0028F9D0641CB4F5967F49
:10117000C2D310BD00000240004400400C0A002011
:101180000D0A00000820080028640240AC0000207E
:101190005C05002001460020904A914203D2B1F143
:1011A000006F00D350E08E4A914204D28B4A9142A4
:1011B00001D3082048E08B4A914204D2884A9142E8
:1011C00001D3102040E0884A914204D2854A9142DE
:1011D00001D3182038E0854A914204D2824A9142D4
:1011E00001D3202030E0824A914204D27F4A9142CA
:1011F00001D3282028E07F4A914204D27C4A9142C0
:1012000001D3302020E07C4A914204D2794A9142B5
:1012100001D3382018E0794A914204D2764A9142AB
:1012200001D3402010E0764A914204D2734A9142A1
:1012300001D3482008E0734A914204D2704A914297
:1012400001D3502000E0582070472DE9F84F0446A4
:101250000D4616464FF00009CA460027B846002042
:1012600000902046FFF796FF8146A019FFF792FFF6
:10127000824601F0E1FEF32002F0DFF9C84609E002
:101280000221404601F02CFF092801D000BFFEE7F3
:1012900008F10808D045F3D9274607E03846296801
:1012A00002F038F8092801D13F1D2D1DA019B842C0
:1012B000F4D801F0CEFE0120BDE8F88F30B503462A
:1012C0001C4603E020680860091D241D1000A2F1DF
:1012D0000102F7D1012030BD2DE9F84F04460D463B
:1012E00016464FF00009CA460027B8460020009075
:1012F0002046FFF74FFF8146A019FFF74BFF8246BC
:1013000001F09AFEF32002F098F9C84609E00221A4
:10131000404601F0E5FE092801D000BFFEE708F1D4
:101320000808D045F3D9274608E0288881B2384616
:1013300002F019F8092801D1BF1CAD1CA019B84250
:10134000F3D801F086FE0120BDE8F88F30B50346E2
:101350001C4604E0208800B20880891CA41C1000F0
:10136000A2F10102F6D1012030BD2DE9F84F04466B
:101370000D4616464FF00008C1460027BA46002029
:1013800000902046FFF706FF8046A019FFF702FFF6
:10139000814601F051FEF32002F04FF9274607E0A5
:1013A0002978384602F00EF8092801D17F1C6D1CFF
:1013B000A019B842F4D801F04CFE0120BDE8F88F26
:1013C00030B503461C4603E020780870491C641CB5
:1013D0001000A2F10102F7D1012030BD0040000849
:1013E0000080000800C0000800000108000002089A
:1013F00000000408000006080000080800000A08B1
:1014000000000C0800000E0810B588B00446012149
:10141000080301F0C3FA0121062001F065FA052254
:1014200003214E4800F021FE052204214B4800F024
:101430001CFE05221146494800F017FE3820019095
:1014400002208DF8080003208DF8090000208DF897
:101450000A008DF80B0001A9404800F07BFD202018
:10146000019001208DF8080003208DF8090000206C
:101470008DF80A008DF80B0001A9394800F06AFDCB
:10148000204602F0E5F80020ADF80C004FF4827021
:10149000ADF80E000020ADF810000220ADF81200EB
:1014A0000120ADF814004002ADF816000020ADF8A0
:1014B0001800ADF81A000720ADF81C0003A920465B
:1014C00002F012F90121204602F0EFF908B010BD38
:1014D00070B504460D4600BF0221204602F09DFA79
:1014E0000028F9D02946204602F060FA00BF022108
:1014F000204602F092FA0028F9D0204602F053FA72
:1015000070BD10B504464FF6FF712046FFF7E0FFAF
:1015100010BD2DE9F04107460D461646A8460024A9
:1015200005E018F804103846FFF7D2FF641CB442F7
:10153000F7D3BDE8F0812DE9F04107460D46164688
:10154000A846002405E03846FFF7DBFF08F8040052
:10155000641CB442F7D3BDE8F081000000040240EF
:10156000000802407FB505460C460121202001F00D
:1015700004FA0295ADF804400020ADF80C00ADF877
:10158000060001A9164802F0BEFB012241211448C1
:1015900003F05AF80121124802F03EFC37208DF882
:1015A000000001208DF8010003208DF802000120C9
:1015B0008DF80300684600F042F97FBD10B50024A5
:1015C0000121074803F057F820B106480068401C85
:1015D000044908600121024803F05EF810BD0000D4
:1015E00000140040080000200948804709480047CF
:1015F000FEE7FEE7FEE7FEE7FEE7FEE7FEE7FEE7C3
:10160000FEE7FEE704480549054A064B704700001F
:101610000317000889010008082400200839002069
:1016200008340020083400200CB500200190009000
:101630007548006840F480307349086000BF724804
:10164000006800F4003000900198401C0190009860
:1016500018B90198B0F5A04FF1D16B48006810F4AB
:10166000003F02D00120009001E00020009000988F
:10167000012845D164484030006840F080506249FC
:10168000403108606148006840F440405F490860AC
:101690005D48083000685C49083108600846006809
:1016A00040F4004008600846006840F4A05008601C
:1016B0005748091F0860081F006840F08070091F24
:1016C000086000BF5048006810F0007FFAD040F278
:1016D0000570504908604C480830006820F003004D
:1016E0004949083108600846006840F00200086077
:1016F00000BF45480830006800F00C000828F8D109
:101700000CBD10B54448006840F4700042490860C0
:101710003D48006840F001003B49086000203A491C
:1017200008310860384800683C490840364908607C
:101730003B48091D0860081F006820F48020091F2D
:101740000860002030490C310860FFF76DFF4FF052
:10175000006031498039086010BD70B5002000225A
:10176000022300240221284D08352D6805F00C00C5
:1017700020B1042806D0082834D107E0294D2A4E8C
:10178000356033E0294D284E35602FE01E4D2D1D6C
:101790002D68C5F380541C4D2D1D2D6805F03F01AB
:1017A00054B1224DB5FBF1F5174E361D3668C6F320
:1017B000881605FB06F209E01A4DB5FBF1F5124E4D
:1017C000361D3668C6F3881605FB06F20E4D2D1D34
:1017D0002D68C5F301456D1C6B00B2FBF3F5124E8D
:1017E000356003E00F4D104E356000BF00BF064D61
:1017F00008352D68C5F303150D4E705D0A4D2D6833
:10180000C540094E356070BD003802400070004090
:1018100019544007003C024088ED00E0FFFFF6FE4F
:10182000103000240024F4000C00002000127A0084
:101830001000002033490143334A1160704770B5EE
:10184000002100230F22C47824B32F4C246804F411
:10185000E064C4F5E064C4F30721C1F10404E3B219
:101860000A4144789C40E1B28478144021430C073B
:10187000210E264C05786155047804F01F050124DB
:10188000AC4005786D114FF0E02606EB8505C5F8F4
:10189000004109E0047804F01F040125A5401C4C18
:1018A0000678761144F8265070BD1A4A0A40024361
:1018B000154B1B1F1A60704739B1134A121D12686D
:1018C0000243114B1B1D1A6006E00F4A121D1268DD
:1018D00082430D4B1B1D1A607047042808D14FF03E
:1018E000E021096941F004014FF0E022116107E0B5
:1018F0004FF0E021096921F004014FF0E02211616D
:10190000704700000000FA050CED00E000E400E084
:1019100080E100E080FFFF1F002061490860C8608F
:101920001F20486100208861C861086248627047D2
:1019300000215B4A126844F201039A43584B1A6033
:101940001A46116840F6F2729143028843881A439E
:1019500083881A43C3881A4303891A4343891A4365
:1019600083891A4311434E4A116070470021018058
:1019700041808180C180018141818181704741889E
:10198000028841EA0241464A1162C188828841EADE
:101990000241434A5162704730B14149096841F000
:1019A00004013F4A116005E03D49096821F0040146
:1019B0003B4A116070470178427841EA02218278FF
:1019C00041EA0241C27841EA0261354A91617047B9
:1019D00030B13349096841F00801314A116005E02E
:1019E0002F49096821F008012D4A1160704730B174
:1019F0002B49096841F48041294A116005E02849D2
:101A0000096821F48041264A1160704730B12449A9
:101A1000096841F00101224A116005E02049096886
:101A200021F001011E4A116070471D48806A70470D
:101A300029B11B4AD2680243194BDA6006E0184A02
:101A4000D268C3439BB21A40154BDA60704710B599
:101A50000146002000230A1312B9114CA36806E0C6
:101A6000022A02D10E4C636801E00D4C23690B423F
:101A700001D0012000E0002010BD094948617047F5
:101A8000014600200022064B1B6903EA01020AB14D
:101A9000012000E0002070470149486170470000C4
:101AA00000000550016821F0010101600021016082
:101AB00041608160C160016121214161DA49884250
:101AC00004D13D21D84A103A91608CE0D6491831B2
:101AD000884205D14FF47461D34A103A916082E094
:101AE000D1493031884205D14FF47411CE4A103AB1
:101AF000916078E0CC494831884205D14FF074615B
:101B0000C94A103A91606EE0C7496031884204D1F9
:101B1000C649C54A103AD16065E0C3497831884268
:101B200004D1C349C04A103AD1605CE0BE4990314B
:101B3000884204D1BF49BC4A103AD16053E0BA4947
:101B4000A831884205D14FF03D51B74A103AD160D3
:101B500049E0B949884204D13D21B74A083A1160A9
:101B600041E0B5491831884205D14FF47461B24A59
:101B7000083A116037E0B0493031884205D14FF45E
:101B80007411AD4A083A11602DE0AB4948318842E2
:101B900005D14FF07461A84A083A116023E0A649C4
:101BA0006031884204D1A149A34A121F11601AE092
:101BB000A1497831884204D19D499F4A121F116082
:101BC00011E09D499031884204D19A499A4A121FE6
:101BD000116008E09849A831884204D14FF03D5186
:101BE000954A121F1160704710B500220268934B8E
:101BF0001A40CC680B6823434C6923438C69234308
:101C0000CC6923430C6A23434C6A23438C6A2343E5
:101C10004C6B23438C6B23431A430260426922F0CE
:101C20000702D1E90B3423431A4342610B69436035
:101C30004B6883608B68C36010BD00210160416008
:101C40008160C160016141618161C1610162416284
:101C50008162C162016341638163704721B102689F
:101C600042F00102026003E0026822F00102026019
:101C7000704721B1026842F40042026003E002684A
:101C800022F400420260704721B1026842F0200253
:101C9000026003E0026822F02002026070474160A7
:101CA00070470146486880B2704722B1036843F428
:101CB0000023036003E0036823F400230360016151
:101CC000704721B1026842F48022026003E002689A
:101CD00022F48022026070470AB1016100E0C16015
:101CE0007047014600200A6812F4002F01D001203D
:101CF00000E000207047014600200A6812F0010F42
:101D000001D0012000E000207047014600204A6910
:101D100002F03800704730B503460A460020002420
:101D2000454DAB4202D24049103901E042491039D9
:101D300012F0005F01D04C6800E00C68404D2C4070
:101D4000144201D0012000E0002030BD02463A4B91
:101D50009A4202D23448103801E03748103811F066
:101D6000005F03D0364B0B40C36002E0344B0B40A6
:101D70008360704710B511F0800F09D022B143691C
:101D800043F08003436103E0436923F08003436130
:101D900080290BD02AB1036801F01E04234303609D
:101DA00004E0036801F01E04A343036010BD70B596
:101DB00002460020002400251F4EB24202D21A4BD8
:101DC000103B01E01C4B103B1E4E314206D01E263C
:101DD00006EAD124166806EA040502E0566906F010
:101DE000800511F0005F01D05C6800E01C68144EB3
:101DF00034400C4202D00DB1012000E0002070BD43
:101E000002460D4B9A4202D20748103801E00A48B8
:101E1000103811F0005F03D0094B0B40C36002E0A3
:101E2000074B0B4083607047106002403D0000206C
:101E3000400F002000003D20106402403F801CF055
:101E40007D0F7D0F3C0F3C0F10B50446984884422F
:101E500008D10121084600F0B2FD0021012000F068
:101E6000AEFD76E09348844208D10121022000F0C3
:101E7000A6FD0021022000F0A2FD6AE08E48844207
:101E800008D10121042000F09AFD0021042000F077
:101E900096FD5EE08948844208D10121082000F0C7
:101EA0008EFD0021082000F08AFD52E08448844223
:101EB00008D10121102000F082FD0021102000F047
:101EC0007EFD46E07F48844208D10121202000F0B9
:101ED00076FD0021202000F072FD3AE07A4884422D
:101EE00008D10121402000F06AFD0021402000F0CF
:101EF00066FD2EE07548844208D10121802000F063
:101F00005EFD0021802000F05AFD22E070488442EE
:101F100008D10121801500F052FD0021A01500F02C
:101F20004EFD16E06B48844208D10121401500F0B7
:101F300046FD0021601500F042FD0AE0664884423B
:101F400007D10121001500F03AFD0021201500F015
:101F500036FD10BDF0B50A4600210023002400BF65
:101F60003DE0012505FA01F3156805EA03049C42EA
:101F700034D105684F000326BE40B543056015798E
:101F80004E00B5400668354305601579012D02D035
:101F90001579022D16D185684F000326BE40B54342
:101FA000856055794E00B540866835438560456843
:101FB00001268E40B5434560456896798E40B6B29D
:101FC00035434560C5684F000326BE40B543C56034
:101FD000D5794E00B540C6683543C560491C102907
:101FE000BFD3F0BD4FF6FF71016000210171417157
:101FF0008171C171704708B54FF480320092009A28
:102000000A430092009AC261C161009AC261C2692A
:102010000092C269009208BD0246002013690B427B
:1020200001D0012000E0002070470146086980B21D
:1020300070470246002053690B4201D0012000E0A6
:10204000002070470146486980B27047018370479D
:10205000418370470AB1018300E0418370474161C9
:10206000704742694A4042617047F0B5002300243E
:102070004D07ED0E02FA05F3CE1000F1200555F8DC
:1020800026504E07F70E0F26BE40B543CF1000F185
:10209000200646F82750CE1000F1200555F82650AE
:1020A00045EA0304CE1000F1200545F82640F0BDB6
:1020B000000002400004024000080240000C024000
:1020C000001002400014024000180240001C0240B0
:1020D00000200240002402400028024010B50446BF
:1020E000F848844209D10121480500F09BFC0021F9
:1020F0004FF4001000F096FC18E0F348844209D138
:102100000121880500F08EFC00214FF4800000F0D2
:1021100089FC0BE0ED48844208D10121C80500F09C
:1021200081FC00214FF4000000F07CFC10BD2DE983
:10213000FF4704460D460026B1460427DFF890838A
:10214000A6884FF6C0700640684600F0FCFADDF83D
:102150000880E048B8FBF0F01FFA80F946EA09066B
:10216000A68020884FF6FE71084020800026DA49BC
:10217000286888420CD828684000B8FBF0F087B285
:10218000042F00DA04273E4309F10100208427E0F0
:10219000E888A0F53F41FF3906D1286800EB4000F0
:1021A000B8FBF0F087B209E0286800EBC00101EB52
:1021B0000010B8FBF0F087B247F480473805000DF7
:1021C00001D147F0010747F4004006434FF49670F1
:1021D00009FB00F04FF47A7190FBF1F0401C208471
:1021E000A683208840F00100208026884FF6F53035
:1021F0000640A8886989084306432680A88929895A
:1022000008432081BDE8FF8741F288310160002149
:1022100081804BF6FF71C1800021018141814FF423
:1022200080418181704721B1028842F00102028021
:1022300004E002884FF6FE731A400280704729B10D
:10224000828C4FF6EF731A40828403E0828C42F056
:102250001002828470470A460021818C4FF6F07389
:10226000194002F00F0319438184704721B102889D
:1022700042F48072028004E002884FF6FF631A4045
:102280000280704721B1028842F40072028004E0AB
:1022900002884FF6FF531A400280704712B141F096
:1022A000010101E001F0FE010182704721B10288C5
:1022B00042F48062028004E002884FF6FF331A4045
:1022C000028070470A46002181894FF60173194048
:1022D00002F0FE0319438181704721B1828942F0E7
:1022E0000102828104E082894FF6FE731A408281E6
:1022F000704721B1028842F04002028004E0028867
:102300004FF6BF731A400280704721B1028842F431
:102310000042028003E00288C2F30E02028070478E
:1023200021B9028842F08002028004E002884FF660
:102330007F731A4002807047B1F5804F05D0828BC1
:102340004BF6FF731A40828303E0828B42F4804293
:1023500082837047B1F5006F04D1028842F40062B5
:10236000028004E002884FF2FF731A400280704737
:10237000B1F5005F04D1028842F40052028004E00B
:1023800002884DF6FF731A400280704721B102881F
:1023900042F01002028004E002884FF6EF731A4008
:1023A00002807047018270470146088AC0B27047B8
:1023B00021B1028842F48052028004E002884EF685
:1023C000FF731A4002807047B1F5006F04D1028894
:1023D00042F40062028004E002884FF2FF731A4068
:1023E0000280704721B1028842F02002028004E09E
:1023F00002884FF6DF731A40028070470146088B4F
:102400000012704721B1828842F40062828004E0A9
:1024100082884FF2FF731A408280704721B1828810
:1024200042F48052828004E082884EF6FF731A40A4
:102430008280704708B50246002000900092009804
:10244000084400900098008808BD1AB183880B43A7
:10245000838002E083888B438380704770B5024697
:102460000024002500230020958A138B1B0445EAD5
:10247000030626F07F4404EA01068E4201D10120C2
:1024800000E0002070BD10B50146002000230022AE
:102490008B8A0A8B120443EA020424F07F4010BDA9
:1024A0000CB50246002000230193009300920B0F0D
:1024B000019321F07F41019B83B1009B1433009372
:1024C00010E000000054004000580040005C004054
:1024D00000127A0040420F00A0860100090C009B08
:1024E00018330093009B1B680B4201D0012000E0D1
:1024F00000200CBD002221F07F42D343838270472D
:1025000030B5024600200023948801F0E06504EA1B
:10251000154321F07F41948A0C4202D00BB1012077
:1025200000E0002030BD002221F07F42D3438382AF
:1025300070470000F948006840F00100F749086062
:102540000020F64908310860F4480068F449084062
:10255000F2490860F348091D0860F348EF498431E7
:102560000860F0481038091D0860EC48006820F445
:102570008020EA4908600020E8490C310860E749FA
:102580008C31086070470021E44A921C117011469A
:102590000870704710B501460022002300204A1140
:1025A000012A02D1DD4C236808E0022A03D1DB4C6A
:1025B0007034236802E0D94C7434236801F01F02A0
:1025C000012494401C4201D0012000E0002010BDF5
:1025D00038B5002000900024002500BF3120FFF70F
:1025E000D9FF05460098401C00900098B0F5A04F18
:1025F00001D0002DF2D03120FFF7CCFF08B101242B
:1026000000E00024204638BD01460020C34A10687F
:1026100020F0F80040EAC10010607047C34908602C
:1026200070470021BD4A703211701170012802D02C
:1026300004280AD104E00121B84A7032117005E083
:102640000521B64A7032117000E000BF00BF70472C
:10265000B7490860704770B5049C41EA82150126AD
:10266000C6EB530645EA0645054345EA0465AB4E0D
:10267000361D356070BDAD4908667047820142EA7B
:102680000172A64B84331A607047A8498866704768
:1026900010B5830143EA016343EA02739F4C883417
:1026A000236010BDA14908677047A049C8647047FE
:1026B00002460020994B0833186820F0EC6042EA8B
:1026C00001031843954B08331860704702460020F9
:1026D000924B0833186820F0784042EA010318430F
:1026E0008E4B083318607047014600208B4A083231
:1026F000106820F0030008431060704787480830D6
:10270000006800F00C00704701460020834A083240
:10271000106820F0F0000843106070470146002068
:102720007E4A0832106820F4E05008431060704779
:1027300001460020794A0832106820F4604040EADF
:10274000C10010607047F0B500210022002402256E
:1027500000260223714F08373F6807F00C0121B1B2
:10276000042905D0082937D105E0724F076036E00B
:10277000714F076033E0694F3F1D3F68C7F38056D4
:10278000664F3F1D3F6807F03F036EB16A4FB7FBCE
:10279000F3F7DFF888C10CF1040CDCF800C0CCF3CF
:1027A000881C07FB0CF40CE0624FB7FBF3F7DFF873
:1027B0006CC10CF1040CDCF800C0CCF3881C07FBE6
:1027C0000CF4564F3F1D3F68C7F301477F1C7D0047
:1027D000B4FBF5F7076002E0564F076000BF00BF8B
:1027E0004E4F08373F6807F0F0010909534F7A5CF4
:1027F0000768D7404760494F08373F6807F4E05102
:10280000890A4E4F7A5C4768D7408760434F083744
:102810003F6807F46041490B484F7A5C4768D740EE
:10282000C760F0BD002100F44072B2F5407F0AD1CC
:102830003A4A0832116821F4F811414A0240114322
:10284000364A08321160354A70321268C0F30B0301
:102850001A43324B70331A60704735494439086067
:1028600070473349403908607047364908607047FF
:1028700001460020294A8C32106820F01F004A1EB1
:102880001043264A8C321060704701460020234ACC
:102890008C32106820F4F8504A1E40EA02201F4A89
:1028A0008C3210607047014600201C4A8C32106840
:1028B00020F4401008431060704701460020174A7A
:1028C0008C32106820F440000843106070470146C5
:1028D0000020124A8C32106820F440300843106007
:1028E000704719490860704739B10C4A3032126894
:1028F00002430A4B30331A6006E0084A303212684D
:102900008243064B30331A607047F9B1034A3432C0
:1029100012680243014B34331A601CE00038024055
:10292000FFFFF6EA1030002400300020000047428C
:10293000800E47420024F40000127A00200000209C
:10294000FFFCFF0F5C014742E0114742854A1268D5
:102950008243844B1A60704739B1824A121D126853
:102960000243804B1B1D1A6006E07E4A121D12684E
:1029700082437C4B1B1D1A60704739B1794A0C3277
:1029800012680243774B0C331A6006E0754A0C322A
:1029900012688243734B0C331A60704739B1714A25
:1029A0001032126802436F4B10331A6006E06D4A12
:1029B0001032126882436B4B10331A60704739B182
:1029C000684A243A12680243664B243B1A6006E0C8
:1029D000644A243A12688243624B243B1A6070476F
:1029E00039B1604A203A126802435E4B203B1A60BC
:1029F00006E05C4A203A126882435A4B203B1A6038
:102A0000704739B1574A1C3A12680243554B1C3B78
:102A10001A6006E0534A1C3A12688243514B1C3B31
:102A20001A60704739B14F4A143A126802434D4B4D
:102A3000143B1A6006E04B4A143A12688243494B31
:102A4000143B1A60704739B1464A103A1268024383
:102A5000444B103B1A6006E0424A103A1268824327
:102A6000404B103B1A60704739B13E4A1C32126825
:102A700002433C4B1C331A6006E03A4A1C3212688F
:102A80008243384B1C331A60704739B1354A2032C3
:102A900012680243334B20331A6006E0314A203279
:102AA000126882432F4B20331A60704739B12D4A88
:102AB0002432126802432B4B24331A6006E0294A61
:102AC000243212688243274B24331A60704739B18D
:102AD000244A2C3212680243224B2C331A6006E03F
:102AE000204A2C32126882431E4B2C331A607047E6
:102AF00039B11C4A3032126802431A4B30331A6023
:102B000006E0184A303212688243164B30331A609E
:102B1000704739B1134A273A12780243114B273BC9
:102B20001A7006E00F4A273A127882430D4B273B72
:102B30001A7070470B484030006840F080700949B7
:102B400040310860704701460020064A283A126862
:102B50000A4201D0012000E00020704701492639D7
:102B6000087070473438024010B50446FA48844271
:102B700008D101211020FFF766FF00211020FFF788
:102B800062FF57E0F548844209D101214804FFF76C
:102B900049FF00214FF40030FFF744FF4AE0F048BE
:102BA000844209D101218804FFF73CFF00214FF442
:102BB0008020FFF737FF3DE0EA48844209D1012138
:102BC000C804FFF72FFF00214FF40020FFF72AFF72
:102BD00030E0E548844209D101210805FFF722FFD2
:102BE00000214FF48010FFF71DFF23E0DF488442EF
:102BF00008D101212020FFF726FF00212020FFF728
:102C000022FF17E0DA48844209D101218807FFF743
:102C100009FF00214FF08040FFF704FF0AE0D5488C
:102C2000844207D101214005FFF7FCFE0021600529
:102C3000FFF7F8FE10BD2DE9FF4705460E460024BC
:102C4000A14600BFA046B08900B100BF2C8A24F481
:102C50004054F08804432C82AC8941F20C608443D8
:102C6000B08831890843718908430443AC81AC8A38
:102C700024F44074B0890443AC826846FFF763FDD6
:102C8000B548854202D0B948854202D1DDF80C90A2
:102C900001E0DDF80890A88910F4004F08D009EB96
:102CA000C90000EB091031684900B0FBF1F707E0FB
:102CB00009EBC90000EB091031688900B0FBF1F79E
:102CC0006420B7FBF0F004012009642101FB1078B7
:102CD000A88910F4004F08D0322000EBC800B0FBE8
:102CE000F1F000F00700044308E0322000EB081088
:102CF0006421B0FBF1F000F00F0004432C81BDE82B
:102D0000FF874FF41651016000218180C18001814D
:102D10000C21418100218181704710B502460020BD
:102D2000108A20F470600B884C8823438C882343DE
:102D3000CC8823431843108210BD002101804180BC
:102D40008180C180704721B1828942F40052828122
:102D500004E082894DF6FF731A4082817047028B2E
:102D600002F47F420283028B0A430283704721B13F
:102D7000828942F40042828103E08289C2F30E021A
:102D80008281704721B1828A42F40062828204E02B
:102D9000828A4FF2FF731A4082827047C1F30802A1
:102DA0008280704701468888C0F308007047028A15
:102DB0004FF6F0731A400282028A0A430282704779
:102DC00021B1828942F00202828104E082894FF6B9
:102DD000FD731A408281704782894FF2FF731A4057
:102DE000828182890A4382817047028A4FF6DF73AB
:102DF0001A400282028A0A430282704721B1028A83
:102E000042F48042028204E0028A4BF6FF731A40C9
:102E100002827047818941F001018181704721B1AF
:102E2000828A42F00802828204E0828A4FF6F773B7
:102E30001A4082827047028BD2B20283028B42EA2E
:102E400001220283704721B1828A42F020028282ED
:102E500004E0828A4FF6DF731A408282704721B104
:102E6000828A42F01002828204E0828A4FF6EF7377
:102E70001A4082827047828A4FF6FB731A40828220
:102E8000828A0A438282704721B1828A42F002021A
:102E9000828204E0828A4FF6FD731A408282704774
:102EA0001AB1838A0B43838202E0838A8B43838235
:102EB0007047F0B503460024002600250020A1F548
:102EC00010676A3F00D100BF1846C1F3421401F0F9
:102ED0001F06012707FA06F5012C01D10C3004E08A
:102EE000022C01D1103000E014301AB107682F43D2
:102EF000076002E00768AF430760F0BD02460020AC
:102F0000B1F5007F00D100BF13880B4201D0012032
:102F100000E00020704701F40072B2F5007F00D19C
:102F200000BFCA430280704770B5024600240023E8
:102F300000250020A1F510666A3E00D100BFC1F354
:102F4000421501F01F03012606FA03F3012D13D1E8
:102F50009689334017E00000001001400044004013
:102F600000480040004C0040005000400014014068
:102F700000780040007C0040022D02D1168A3340C8
:102F800001E0968A33400C12012606FA04F41688F2
:102F9000344013B10CB1012000E0002070BD10B529
:102FA00000220023A1F510646A3C00D100BF0A1280
:102FB00001249440A3B2DC43048010BDFE4A10708B
:102FC000704730B1FC49096841F48071FA4A1160D8
:102FD00005E0F949096821F48071F74A11607047EA
:102FE00030B1F549096841F40071F34A116005E018
:102FF000F149096821F40071EF4A1160704730B15E
:10300000ED49096841F48061EB4A116005E0EA4945
:10301000096821F48061E84A11607047E648006859
:1030200040F40060E44908607047E348006840F4F9
:103030008050E14908607047DF481030006810F0A8
:10304000004F05D0DD48DC49091D0860DC480860F8
:103050007047D9481030006840F00040D649103120
:10306000086070470920D4490C31096801F48031A7
:10307000B1F5803F01D1012020E0CF490C31096832
:1030800011F0100F01D0062018E0CB490C3109686F
:1030900011F4807F01D0022010E0C7490C3109688B
:1030A00011F0EF0F01D0072008E0C3490C31096887
:1030B00011F0020F01D0082000E00920704708B588
:1030C00009200090FFF7CEFF009002E0FFF7CAFF53
:1030D00000909DF800000128F8D09DF8000008BD80
:1030E00070B504460A460026092502B909E0012AFE
:1030F00001D1160205E0022A01D1160201E04FF4C7
:103100004076FFF7DCFF0546092D2DD1AA48103087
:10311000006820F44070A849103108600846006833
:10312000304308600846006820F0F8000860084650
:10313000006844F0020108439F49103108600846C6
:10314000006840F480300860FFF7B9FF05469A48F0
:103150001030006820F002009749103108600846DE
:10316000006820F0F8000860284670BD30B50246BF
:1031700000250924FFF7A3FF044602B909E0012A4C
:1031800001D1150205E0022A01D1150201E04FF438
:103190004075092C20D188481030006820F4407018
:1031A00085491031086008460068284308600846D1
:1031B000006840F0040008600846006840F4803071
:1031C0000860FFF77CFF04467B481030006820F061
:1031D0000400794910310860204630BD30B5024600
:1031E00000250924FFF76BFF044602B909E0012A14
:1031F00001D1150205E0022A01D1150201E04FF4C8
:103200004075092C20D16C481030006820F44070C3
:10321000694910310860084600682843086008467C
:10322000006840F0040008600846006840F4803000
:103230000860FFF744FF04465F481030006820F044
:1032400004005D4910310860204630BD30B50246AB
:1032500000250924FFF733FF044602B909E0012ADB
:1032600001D1150205E0022A01D1150201E04FF457
:103270004075092C20D150481030006820F440706F
:103280004D49103108600846006828430860084628
:10329000006840F4004008600846006840F4803050
:1032A0000860FFF70CFF044643481030006820F424
:1032B0000040414910310860204630BD70B50646D7
:1032C00014461D464FF00902FFF7F9FE0246092A8F
:1032D0001ED139481030006820F440703649103152
:1032E00008600846006840F44070086008460068BE
:1032F00040F00100086034607560FFF7E0FE0246B0
:103300002D481030006820F001002B491031086072
:10331000104670BD30B502460C460925FFF7CFFEBA
:103320000546092D1DD124481030006820F4407056
:103330002149103108600846006840F400700860B8
:103340000846006840F0010008601460FFF7B7FE0F
:10335000054619481030006820F001001649103168
:103360000860284630BD30B502460C460925FFF7F7
:10337000A6FE0546092D1DD10F481030006820F427
:1033800040700D49103108600846006840F48070B4
:1033900008600846006840F0010008601480FFF7EC
:1033A0008EFE054604481030006820F001000249F6
:1033B00010310860284630BD003C024023016745BB
:1033C000AB89EFCD30B502460C460925FFF777FEF5
:1033D0000546092D17D19B48006820F44070994993
:1033E00008600846006808600846006840F0010070
:1033F00008601470FFF763FE05469248006820F0ED
:10340000010090490860284630BD8E48001D0068C4
:1034100010F0010F05D08C488A49083908608B48A4
:10342000086070478748001D006840F0010085492A
:10343000091D0860704730B502460C460925FFF7A4
:103440003EFE0546092D10D13CB17E48801D008806
:1034500090437C49891D088007E07A48801D0088D8
:1034600091B208437749891D088030BD30B50246C6
:103470000C460925FFF723FE0546092D10D13CB166
:1034800070480A30008890436E490A31088007E08E
:103490006C480A30008891B208436A490A310880B2
:1034A00030BDFF21674AD21D127802F07F0140EA49
:1034B0000102644BDB1D1A70704730B502460C46A2
:1034C0000925FFF7FCFD0546092D10D144B15D48E3
:1034D000801D008891B208435A49891D088006E082
:1034E0005848801D008890435649891D088030BD8A
:1034F00030B502460C460925FFF7E1FD0546092DCA
:1035000010D144B14F480A30008891B208434D4968
:103510000A31088006E04B480A3000889043494948
:103520000A31088030BD10B502460924FFF7C7FDF7
:103530000446092C02D14348401D027010BDF0B56D
:1035400004460D46FF260927FFF7B9FD0746092F58
:103550000BD13C48001D007800F00F0645EA06003C
:10356000104320433749091D0870F0BD3549091D36
:10357000097821F01001334A121D117011460978A3
:103580000143117070472F49091D097821F00C0182
:103590002C4A121D117011460978014311707047B1
:1035A00000B509222748001D007840F00200254997
:1035B000091D0870FFF783FD0246104600BD214833
:1035C000001D0068C0F3471070471E48801D00882A
:1035D00070471C480A30008870471A48801D0088D0
:1035E000704718480A300088704700201549491D67
:1035F0000978AA2901D0012000E000207047114875
:10360000001D007800F00C00704729B10D4A1268C7
:1036100002430C4B1A6004E00A4A12688243094BC9
:103620001A60704701460020064A121F12680A42BB
:1036300001D0012000E0002070470249091F086006
:1036400070470000103C02403B2A19087F6E5D4C19
:1036500010B50446F748844208D101218014FFF7D1
:10366000F2F90021A014FFF7EEF93CE0F2488442A1
:1036700008D101210014FFF7D5F900212014FFF72C
:10368000D1F930E0ED48844208D10121C013FFF7A1
:10369000C9F90021E013FFF7C5F924E0E8488442A6
:1036A00008D101214014FFF7CEF900216014FFF783
:1036B000CAF918E0E348844209D101210805FFF75F
:1036C000C2F900214FF48010FFF7BDF90BE0DE488E
:1036D000844208D101214805FFF7B5F900214FF4D4
:1036E0000010FFF7B0F910BD10B50022028802F4F7
:1036F00041520B884C8823438C882343CC88234336
:103700000C8923434C8923438C892343CC8923434D
:103710001A430280838B4FF2FF74234083830B8A0A
:10372000038210BD2DE9F04F00250223002401275C
:1037300000220026944690469146B0F81CA04FF215
:10374000400B0AEA0B0AA0F81CA04FF0020AA0F8EE
:1037500020A0858BD1F808A0BAF1020F01D100BFDB
:103760006AE0B1F804A0BAF1000F01D1012700E02E
:103770000227DFF8D8A2DAF800A01AF4000F09D067
:10378000DFF8C8A2DAF800A02AF4000ADFF8BCB219
:10379000CBF800A0DFF8B4A20AF17C0ADAF800A0A6
:1037A000CAF38818DFF8A4A20AF17C0ADAF800A0AC
:1037B000CAF30279DFF894A2AAF1040ADAF800A0A9
:1037C0000AF03F0CDFF888A2BAFBFCFA0AFB08FA01
:1037D000BAFBF9F6B1F806A0BAF5007F0ED14FEAB0
:1037E000162A0AEB8A0A4FEA4A0AD1F808B0BAFB4D
:1037F000FBFA0AF1050A1FFA8AF20FE04FEA471AAC
:10380000B6FBFAFA0AEB8A0A4FEA4A0AD1F808B07C
:10381000BAFBFBFA0AF1050A1FFA8AF24FF00A0A0C
:10382000B2FBFAF202F00104A2EB040ACAF34F035E
:103830004FF6FF7A0AEA0424022B01DBFF2B01DD9D
:1038400002230024B1F806A04AEA040A4AEA030A5D
:10385000A0F820A0B1F804A0B1F80CB04AEA0B0A15
:10386000B1F802B04AEA0B0AB1F800B04AEA0B0A12
:103870004AF4006A4AEA05058583BDE8F08F002115
:10388000018041808180C180018141818181C1812C
:103890000721018270470021018041808180C18021
:1038A0000221816000218181704721B1028842F0AC
:1038B0004002028004E002884FF6BF731A40028083
:1038C000704721B1828B42F48062828304E0828B54
:1038D0004FF6FF331A408283704702884FF2FF731E
:1038E0001A40028002880A4302807047B1F5804F77
:1038F00004D1028842F48042028004E002884BF640
:10390000FF731A4002807047A1F57E42FF3A04D04F
:10391000028842F48072028004E002884FF6FF635E
:103920001A400280704721B1828842F004028280EE
:1039300004E082884FF6FB731A408280704721B101
:10394000828842F01002828004E082884FF6EF7392
:103950001A408280704730B500220023848B4FF2DA
:1039600040052C40848302240484828B0C88B4F5A7
:10397000007F01D00C8814B94FF4807308E00C88E4
:10398000B4F5407F03D00C88B4F5807F00D10023CC
:103990008C888D892C434D882C431C4344F400644F
:1039A0002243828330BD01468889704781817047F8
:1039B00021B1028842F40052028004E002884DF6F0
:1039C000FF731A4002807047018841F480510180E2
:1039D000704702460020012901D0108B00E0908A38
:1039E00070470146088A70471AB183880B43838069
:1039F00002E083888B438380704730B50024002326
:103A00000C110125A540ABB21AB185881D438580F4
:103A100002E085889D43858030BD024600201389E1
:103A20000B4201D0012000E000207047CA43028110
:103A3000704700000030014000380040003C00406A
:103A40000034014000500140005401400838024059
:103A500000127A00F0B50246002000240023002561
:103A600001F00F070126BE40B4B20B1101269E40A3
:103A7000B3B2968806EA03051689264202D00DB134
:103A8000012000E00020F0BD10B5002201F00F047D
:103A90000123A3409AB2D343038110BD00204149C2
:103AA0000860091D0860091D0860091D08603E487E
:103AB0003C4914310860704700213A498279002A54
:103AC0003AD00A46126803689A430B461A600A1DE8
:103AD000126803689A430B1D1A60027911440A6840
:103AE00003681A430A602F4A0832126803689A432F
:103AF0002C4B08331A601A1D126803689A43294B2D
:103B00000C331A604279102A0ED11A1F126803680A
:103B10001A43244B08331A601A1D126803681A43AB
:103B2000204B0C331A600DE01E49427911440A689B
:103B300003681A430A6005E0027911440A680368C1
:103B40009A430A6070470021016001710C214171A4
:103B50000021817170471349103109680143114AEE
:103B6000103211607047014600200E4A143212686C
:103B70000A4201D0012000E00020704709491431B9
:103B80000860704701460020064A143212680A4253
:103B900001D0012000E00020704702491431086084
:103BA00070470000003C0140FFFF7F0010B5044655
:103BB000FE48844208D101210846FEF744FF002157
:103BC0000120FEF740FF9DE0B4F1804F08D10121B4
:103BD0000846FEF727FF00210120FEF723FF91E0B2
:103BE000F348844208D101210220FEF71BFF002187
:103BF0000220FEF717FF85E0EE48844208D101213C
:103C00000420FEF70FFF00210420FEF70BFF79E0F0
:103C1000E948844208D101210820FEF703FF002172
:103C20000820FEF7FFFE6DE0E448844208D1012140
:103C30001020FEF7F7FE00211020FEF7F3FE61E0F2
:103C4000DF48844208D101212020FEF7EBFE00214D
:103C50002020FEF7E7FE55E0DA48844208D1012132
:103C60000220FEF7F0FE00210220FEF7ECFE49E004
:103C7000D548844209D101210804FEF7E4FE002161
:103C80004FF48030FEF7DFFE3CE0D048844209D19B
:103C900001214804FEF7D7FE00214FF40030FEF763
:103CA000D2FE2FE0CA48844209D101218804FEF7E0
:103CB000CAFE00214FF48020FEF7C5FE22E0C54871
:103CC000844208D101214020FEF7ACFE00214020B3
:103CD000FEF7A8FE16E0C048844208D101218020EA
:103CE000FEF7A0FE00218020FEF79CFE0AE0BB4804
:103CF000844207D101218015FEF794FE0021A01512
:103D0000FEF790FE10BD00220288A84B98420ED00C
:103D1000AC4B98420BD0B0F1804F08D0A44B9842E6
:103D200005D0A44B984202D0A34B984204D14FF641
:103D30008F731A404B881A43A04B984207D0A04B70
:103D4000984204D04FF6FF431A400B891A43028071
:103D50004B68C3620B880385944B984202D0994B01
:103D6000984201D18B7A03860123838270474FF0FA
:103D7000FF314160002101800181418081727047E3
:103D80000185828270470A46002101884FF68F73B1
:103D9000194011430180704741627047C16270470A
:103DA0000146486A70470146088D704721B1028874
:103DB00042F00202028004E002884FF6FD731A40CE
:103DC0000280704721B1028842F00402028004E0C0
:103DD00002884FF6FB731A400280704721B10288B7
:103DE00042F08002028004E002884FF67F731A409E
:103DF0000280704702884FF6F7731A4002800288EB
:103E00000A430280704702884FF6FF431A4002803F
:103E100002880A430280704721B1028842F0010201
:103E2000028004E002884FF6FE731A400280704759
:103E300070B5002400220023058C4FF6FE76354035
:103E40000584028C8388048B4FF68F752C40B51E39
:103E50002C400D882C43751E2A408D892A434D889D
:103E60002A43524DA84202D0564DA84213D14FF6D4
:103E7000F7752A40CD892A434FF6FB752A408D8875
:103E80002A434FF6FF652B404FF6FF552B400D8A16
:103E90002B434D8A2B43838004838D6845630284C2
:103EA00070BD70B5002400220023058C4FF6EF761C
:103EB00035400584028C8388048B48F6FF752C40BE
:103EC0004FF6FF452C400D884FF6FF7606EA052594
:103ED0002C434FF6DF752A408D8906EA05152A43E3
:103EE0004D8806EA05152A43304DA84202D0354DCB
:103EF000A8421DD14FF67F752A40CD894FF6FF7637
:103F000006EA05152A434FF6BF752A408D8806EA52
:103F100005152A434FF6FF352B404FF2FF752B4016
:103F20000D8A06EA85052B434D8A06EA85052B4353
:103F3000838004838D688563028470BD70B500241E
:103F400000220023058C4FF6FF6635400584028C65
:103F50008388848B4FF68F752C404FF6FC752C4070
:103F60000D882C434FF6FF552A408D894FF6FF767A
:103F700006EA05252A434D8806EA05252A430B4D06
:103F8000A84202D00F4DA84238D14FF2FF752A4007
:103F9000CD894FF6FF7606EA05252A434FF6FF3511
:103FA0002A408D8806EA05252A4319E000000140D1
:103FB0000004004000080040000C004000100040D9
:103FC0000014004000040140004001400044014052
:103FD0000048014000180040001C00400020004044
:103FE0004EF6FF752B404DF6FF752B400D8A06EA05
:103FF00005152B434D8A06EA05152B4383808483E0
:104000008D68C563028470BD70B500220023002452
:10401000058C4EF6FF7635400584038C8488828BB0
:1040200048F6FF752A404FF6FF452A400D884FF6A7
:10403000FF7606EA05252A434DF6FF752B408D894C
:1040400006EA05352B434D8806EA05352B43FE4D20
:10405000A84202D0FD4DA84208D14BF6FF752C4076
:104060000D8A4FF6FF7606EA85152C4384808283FD
:104070008D680564038470BD0021018041808180CA
:1040800081608181C18101824182704770B50346A0
:10409000002000241846183001258D40ACB21D8C3C
:1040A000A5431D8409B108290AD100EB6100056808
:1040B0004FF68F76354005600568154305600FE0C3
:1040C0000D1FC5F34E052844056848F6FF763540B8
:1040D000056005684FF6FF7606EA0226354305605F
:1040E00070BD4163704781637047C163704701646D
:1040F00070470A460021018B4FF68F731940114318
:10410000018370470A460021018B48F6FF7319406E
:104110004FF6FF7303EA02231943018370470A46EF
:104120000021818B4FF68F731940114381837047B3
:104130000A460021818B48F6FF7319404FF6FF7342
:1041400003EA02231943818370470A460021018B49
:104150004FF6F77319401143018370470A46002157
:10416000018B4FF2FF7319404FF6FF7303EA0223EE
:104170001943018370470A460021818B4FF6F7737C
:1041800019401143818370470A460021818B4FF209
:10419000FF7319404FF6FF7303EA0223194381832B
:1041A00070470A460021018B4FF6FB7319401143FB
:1041B000018370470A460021018B4FF6FF331940F7
:1041C0004FF6FF7303EA02231943018370470A463F
:1041D0000021818B4FF6FB73194011438183704797
:1041E0000A460021818B4FF6FF3319404FF6FF73CB
:1041F00003EA02231943818370470A460021018B99
:104200004FF67F7319401143018370470A4600211E
:10421000018BC1F30E014FF6FF7303EA022319432A
:10422000018370470A460021818B4FF67F73194046
:104230001143818370470A460021818BC1F30E012F
:104240004FF6FF7303EA02231943818370470A463E
:104250000021018C4FF6FD73194011430184704712
:104260000A460021018C4FF6F7731940114301846F
:1042700070470A460021018C4FF6DF7319404FF654
:10428000FF7303EA02131943018470470A460021B1
:10429000018C4FF67F7319404FF6FF7303EA021348
:1042A0001943018470470A460021018C4FF6FF53E1
:1042B00019404FF6FF7303EA022319430184704744
:1042C0000A460021018C4FF2FF7319404FF6FF732D
:1042D00003EA02231943018470470A460021018C36
:1042E0004DF6FF7319404FF6FF7303EA023319438B
:1042F0000184704730B5002301248C40A3B2048CA4
:104300009C430484048C02FA01F5ADB22C4304846E
:1043100030BD30B5002304248C40A3B2048C9C43F0
:104320000484048C02FA01F5ADB22C43048430BD40
:10433000828B4FF2FF331A408283828B4FF6FF73DA
:1043400003EA01231A4382837047F0B50C461546F1
:10435000002100220026078C4EF6FF7C07EA0C079E
:104360000784818B028C4FF6FF7707EA043640F60C
:10437000FF4739404FF6FF7707EA052739434FF6E5
:10438000FF7707EA0337394345F6FF773A4046F4AB
:1043900080573A4381830284F0BD828B4FF6F373DA
:1043A0001A408283828B0A4382837047F0B50C46A1
:1043B0001546002100220026078C4FF6FF6C07EA05
:1043C0000C070784818B028C4FF6FF7707EA0426DF
:1043D0004FF60C7739404FF6FF7707EA03172F4364
:1043E00039434FF2FF573A4046F480773A4381838E
:1043F0000284F0BD028B4FF2FF331A400283028B1E
:104400004FF6FF7303EA01231A4302837047F0B5A6
:104410000C461546002100220026078C4FF6EF7C43
:1044200007EA0C070784018B028C4FF6FF7707EA37
:10443000041640F6FF4739404FF6FF7707EA033787
:1044400039434FF6FF7703E00000014000040140CC
:1044500007EA052739434FF65F773A4046F01007E1
:104460003A4301830284F0BD028B4FF6F3731A4086
:104470000283028B0A4302837047F0B50C4615464F
:1044800000210022068C4FF6FE773E400684018B09
:10449000028C4FF60C7631407E1C06EA03162E4342
:1044A00031434FF6F576324044F001063243018342
:1044B0000284F0BD70B505460C46208850B92389AA
:1044C000A28861882846FFF7D8FFE1882846FFF7D1
:1044D000CBFF25E0208804280AD12389A28861889F
:1044E0002846FFF794FFE1882846FFF783FF17E08F
:1044F000208808280AD12389A28861882846FFF7E6
:1045000055FFE1882846FFF748FF09E02389A28884
:1045100061882846FFF719FFE1882846FFF708FF62
:1045200070BD002101804180012181800021C18076
:10453000018170472DE9F04105460C460026012710
:10454000608808B9022600E00026A088012801D171
:10455000022700E001272088A0B92389A28861886A
:104560002846FFF78AFFE1882846FFF77DFF238969
:104570003A4631462846FFF74AFFE1882846FFF7CA
:1045800039FF13E02389A28861882846FFF73FFF9F
:10459000E1882846FFF72EFF23893A463146284610
:1045A000FFF76BFFE1882846FFF75EFFBDE8F0816B
:1045B0000146486B70470146886B70470146C86BDF
:1045C00070470146086C70470A884B881A438B88ED
:1045D0001A43CB881A430B891A434B891A438B8998
:1045E0001A43A0F844207047002101804180818057
:1045F000C180018141818181704731B1B0F844208F
:1046000042F40042A0F8442005E0B0F84420C2F390
:104610000E02A0F84420704721B1828842F00402C3
:10462000828004E082884FF6FB731A4082807047D4
:1046300021B1828842F00102828004E082884FF634
:10464000FE731A40828070471AB183890B438381BD
:1046500002E083898B4383817047818270470246E1
:104660000020138A0B4201D0012000E00020704797
:10467000CA430282704730B502460020002300245E
:10468000158A05EA0103958905EA010413B10CB105
:10469000012000E0002030BDCA430282704741EA99
:1046A0000203A0F8483070471AB183890B43838115
:1046B00002E083898B438381704721B1828842F075
:1046C0000802828004E082884FF6F7731A408280E5
:1046D000704701894FF6F8721140018170470A4610
:1046E000002101894FF68F731940114301817047F2
:1046F00030B504460D4629462046FFF7F0FF2089D5
:1047000040F00700208130BD2DE9F04104460D4600
:1047100016461F46602D06D13B46012231462046F3
:10472000FFF775FE05E03B46012231462046FFF7C4
:10473000A4FE29462046FFF7D2FF208940F007005B
:104740002081BDE8F08130B50C4600210189C9B255
:104750004FF6FF7505EA03251543254329430181DB
:1047600030BD2DE9F04105460E4617469846002417
:1047700043463A4631462846FFF7E5FF2C894FF677
:10478000F870044044F007044FF68F70044044F082
:1047900070042C81BDE8F081F0B504460D46164644
:1047A0001F463B46324629462046FFF7CCFF20896C
:1047B00040F480402081F0BD82884FF68F731A400C
:1047C000828082880A438280704702894FF6F8739C
:1047D0001A40028102890A430281704702894FF61A
:1047E0007F731A40028102890A4302817047F0B543
:1047F0000C4615461E460021002200230189028B2B
:10480000038C4FF6F877394021434FF6FC473A4086
:1048100040F201173A434FF6DD773B404FF6FF7702
:1048200007EA06172F433B43018102830384F0BD4F
:1048300021B1828842F08002828004E082884FF6B3
:104840007F731A4082807047A0F8501070470000B4
:1048500010B501218803FEF7F6F800214FF48040DF
:10486000FEF7F1F810BD1C49086070471B4908624B
:10487000704730B500228B071C0F0F2303FA04F298
:10488000154B08338C1053F824309343124C0834E2
:104890008D1044F8253023468C1053F824308C07B3
:1048A000240F00FA04F423430B4C08348D1044F811
:1048B000253030BD0A49086070470A4908607047D2
:1048C000002005492031096811F4807F01D00120C2
:1048D00000E000207047000000380140000027423F
:1048E000DC00274200042742704770B506460C469C
:1048F00015462DB122460121304600F055FE70BD0F
:1049000022460021304600F04FFEF8E770B504461D
:104910000D46164632462946204601F099FB70BDE9
:1049200070B504460D46164632462946204601F02B
:1049300000FB70BD704770B50446002504E04FF4DD
:104940007A70FBF71BFE6D1C40F6F400005910F462
:10495000007F01D00A2DF2DB0A2D01D1022070BDAB
:1049600000BF40F6F400005940F4007140F6F40036
:10497000015100BF0020F2E7014600BF40F6F400FD
:10498000405820F4007240F6F400425000BF00206E
:1049900070470146502901D1122100BF00BF41F4E8
:1049A000004070472DE9F04104466568A87810F092
:1049B000010F02D06888401D01E06888001D87B2A1
:1049C000002D17D000206060FBA0FFF7B3FF3A4630
:1049D0002946182002F0DDF9064626B104214420BC
:1049E00002F03BF9064616B90020A0602082F9A02B
:1049F000FFF7A0FF3046BDE8F0812DE9F041044605
:104A00000F46002600BF40F6F400005920F48061F4
:104A100040F6F400015100BF2046FFF7C3FF10B974
:104A20000020BDE8F08104E04FF47A70FBF7A6FDAA
:104A3000761C40F6F400005910F4806F01D10A2E64
:104A4000F2DB0A2E01D10020EBE7A06830B9218803
:104A5000E7A0FFF76FFFE089208218E0A568E888EB
:104A600068B9A888A189884209D1208A69888842C2
:104A700005DB2088FFF78DFF2988884206D00020BB
:104A80002082228A2188E5A0FFF754FF00BF208AF8
:104A9000C7E7F0B50C46DDE9055611460C804B80A2
:104AA00087897F1CBFB287818F800027CF800480D9
:104AB0004260C38185600EB1374600E01F46078221
:104AC000F0BD2DE9FC470746884607F11604254648
:104AD00003202872FF22062105F1090005F0D1F913
:104AE0000F34404605F037F9A0B12646002030804B
:104AF000404605F030F97080404605F02CF98146BB
:104B00004A464146301D05F045F97088001D204495
:104B1000044600BF214640F201130B8000234B8066
:104B2000241D01220EE02046427000230370837092
:104B30006423A0F80330A0F805304B88DB1D4B80C0
:104B4000E41D521C0E2AEEDD2646012030800C208A
:104B500070807288BC49301D05F01CF97088001DFA
:104B600004444FF48060CDE90050601B83B22A46B4
:104B700006213846FFF78DFFBDE8FC872DE9FC478D
:104B800080460D4608F116042646B5F87E000190D1
:104B90009DF8050020F002008DF805006868B060FF
:104BA0002889B081BDF80400F081142030827C2077
:104BB000405B708203203075153427460020388012
:104BC000A88978807A8805F11001381D05F0E2F88F
:104BD0007888001D04442046032101800121418082
:104BE00095F82C1201714188091D0C442046031DC3
:104BF0000022002107E0944F17F801901746521C3D
:104C000003F80790491C0C29F5D30127078042803F
:104C100047883F1D3C44204640F21311018010217B
:104C20004180241DD5F810222260D5F8141261604D
:104C30000834696F2160A96F61600834204640F232
:104C40001F1101800221418098F87218012902D0B9
:104C5000022906D102E00021818006E00121818045
:104C600003E04FF6FF71818000BF00BF4188091D3E
:104C70000C444FF48060CDE90060A01B83B2324643
:104C800050214046FFF705FFBDE8FC872DE9F04FB6
:104C900089B00C4690461E462746354606F1740AF2
:104CA0004FF0000969A0FFF745FEF879B9797A79E4
:104CB0003B79CDE90232CDE90410F87807F1050718
:104CC00017F8031CCDE90010FB89BA89F87800F0C9
:104CD0007F00C0F100016348FFF72CFE57F8030C7A
:104CE0006860B7F801002881F87800F07F00404242
:104CF00068637868CAF80000B868CAF80400B88920
:104D0000AAF808002020E863B9892964F889AAF87C
:104D10000A00F8890890F889A7F1050708909DF81E
:104D20002000C0F3001028639DF82000C0F340006D
:104D300080F0010085F85C0004F115044FF00C00D0
:104D4000306704F10200404518D2A8EB0400B0F52A
:104D5000C87F02D2A8EB040001E04FF4C87083467C
:104D6000306F584430675A46214606F1800005F0FE
:104D700011F806F1800404EB0B0800BF316F01F15C
:104D8000740028602868C01C20F0030028602EE111
:104D90002078062868D006DC05287BD2DFE800F002
:104DA000658CA0B8D600072875D02A2874D0322880
:104DB00073D096286ED111E1436D6420446F776EF5
:104DC0006C6F6164696E673E3E3E3E3E3E3E3E3ED7
:104DD0003E0D0A000D0A2A2A2A2A446F776E6C6F4C
:104DE0006164204F7665722A2A2A2A0D0A0D0A006C
:104DF000436D6450726F63657373436D643A2063EF
:104E00006D643D25303478286E527853697A653D5B
:104E10003029204F4B2E0D0A00000000436D6450D6
:104E2000726F63657373436D643A20636D643D25EF
:104E3000303478286E527853697A653D256429208C
:104E40004F4B2E0D0A00000028BC00082B436D6458
:104E50005363616E496E746572707265743228298D
:104E60000D0A000034BC000879E06278A11C684695
:104E700004F090FF002061780DF8010061786A4627
:104E8000EBA0FFF757FD6078A8B16078202805D225
:104E9000607804E0A7E06FE077E082E02020E8603F
:104EA000A11C05F11000EA6804F074FF002105F16F
:104EB0001000EA68815496E06178E7A0FFF73AFDB8
:104EC000607860B16078102801D2607800E010202E
:104ED00081464A46A11C05F15D0004F05BFF82E0BB
:104EE0006178E6A0FFF726FD607880B120460021BA
:104EF00085F838100022AA641022EA6442792A65F3
:104F000002796A654288AA65C6F82C1200BF6AE079
:104F10006178E6A0FFF70EFD6078B0B1A3460320EC
:104F200085F838009BF8020000EB800000F667105F
:104F3000A8649BF80200C6F82C029BF8021005F149
:104F40001002E6A0FFF7F6FC4DE04CE06178EEA021
:104F5000FFF7F0FC607808B1C6F8304243E06178B2
:104F6000F0A0FFF7E7FC607828B1204642886A6429
:104F7000C6F8340200BF36E06178F2A0FFF7DAFC31
:104F8000607808B1C6F838422DE06178F6A0FFF7E6
:104F9000D1FC607820B12046817886F8281200BFC5
:104FA00021E06178F8A0FFF7C5FC6078A8B1B9F1FD
:104FB000000F12D06078C9F11001884201D26078E8
:104FC00001E0C9F11000834605F15D0101EB090024
:104FD0005A46A11C04F0DEFE00BF04E06178F6A092
:104FE000FFF7A8FC00BF00BF6078801C0444607815
:104FF000801C204440457FF6CBAEF8A0FFF79AFC1A
:1050000009B0BDE8F08F2DE9F04781460C46904687
:105010001D4604EB080A95B14FF41171284604F0BF
:105020005AFF0AE027463888801C06192B4632466C
:1050300021464846FFF72AFE34465445F2D3002065
:10504000BDE8F0872DE9FC4780460E4608F11609B9
:105050004C465021204604F01CFF2681022E4BD1E5
:1050600000206081E348006890F8D008052804D04B
:105070000D2804D0102806D103E0012505E0022503
:1050800003E0032501E0012500BF00BF618904F1B1
:105090000C004554D749096891F8D0286389011D4F
:1050A000102707FB0310D349096801F6D10104F06A
:1050B00071FED048006890F8D018CFA0FFF73AFCF6
:1050C0002946D2A0FFF736FCD5A0FFF733FC002716
:1050D00008E0C848006800F6D100C15DD4A0FFF721
:1050E00029FC7F1CC348006890F8D008B842F0DC67
:1050F000BFA0FFF71FFC08E0042E06D10020FF220E
:10510000030104F11001CA5400BF002050232246BD
:105110001321CDE900404046FFF7BBFCBDE8FC870A
:10512000F8B50446A068002838D069462C2001F064
:105130009CFD022801D1012000E00020064616B3A4
:10514000218AA06804F0A5FE208ABDF800108842DC
:1051500001DA208A0090BDF8000010F0010F03D0A2
:10516000BDF80000401C01E0BDF8000085B22A46F1
:105170001820A16801F04FFFA84201D1012000E0F2
:105180000020064600BF1EB1BDF80000208204E0EA
:10519000BDF8000020820020A06000BF1021442044
:1051A00001F05BFDF8BD2DE9F0470746894616463C
:1051B0003846FFF7C0FB8046B8F1000F02D04046EA
:1051C000BDE8F08749463846FFF77BFC47F230518F
:1051D0003846FFF712FC0446ACB1BD6896B1A87A18
:1051E00080B12989A4F10B00814201D2288901E014
:1051F000A4F10B0084B23346224605F10B01384678
:10520000FFF701FF00BF3846FFF7B6FB4046D7E780
:105210002DE9F84F06468B463046FFF78CFB81465A
:10522000B9F1000F02D04846BDE8F88F04E1000054
:10523000436D645363616E496E7465727072657418
:10524000323A2046696E6420535349442825642C21
:105250002573290D0A000000436D645363616E4994
:105260006E74657270726574323A2046696E64209D
:105270005261746573282564290D0A00436D6453D7
:1052800063616E496E74657270726574323A20465D
:10529000696E64204672657175656E637920486F2A
:1052A0007070696E67282564290D0A00436D645388
:1052B00063616E496E74657270726574323A20462D
:1052C000696E642044697265637420537065637409
:1052D00072756D282564290D0A000000436D645322
:1052E00063616E496E74657270726574323A2046FD
:1052F000696E64204453204368616E6E656C20259E
:1053000064282573290D0A00436D645363616E4957
:105310006E74657270726574323A20434628256453
:10532000290D0A00436D645363616E496E746572A2
:1053300070726574323A2049425353282564290D0E
:105340000A000000436D645363616E496E746572B8
:1053500070726574323A20436F756E7472792825C5
:1053600064290D0A00000000436D645363616E49B7
:105370006E74657270726574323A204552502825F9
:1053800064290D0A00000000436D645363616E4997
:105390006E74657270726574323A20457874656E09
:1053A0006420737570706F727465642072617465C7
:1053B00073282564290D0A00436D645363616E49A7
:1053C0006E74657270726574323A2063637820740B
:1053D0007063282564290D0A000000002D436D64C8
:1053E0005363616E496E74657270726574322829F8
:1053F0000D0A0000300000204B65794C656E677423
:10540000683A203078253038580D0A0057657054B6
:105410007970653A203078253038580D0A00000040
:105420004B65794D6174657269616C3A0D0A0000D3
:105430003078253032582C00FAA0FFF77BFA594615
:105440003046FFF79BFB47F230513046FFF7D5FA65
:105450000746002F52D006F11605112F03D3688995
:1054600008B9002000E005208146A8890090AB899A
:105470006A893946F1A0FFF75DFAB9F1000F3CD116
:1054800006F216446888A0F10E08288960836989AD
:10549000A183A989E183208B40F001002083208B28
:1054A00040F002002083208B40F004002083606ADB
:1054B000C0F5FA7AC24501DA504600E040460028BD
:1054C00001DA002004E0C24501DA504600E040461F
:1054D0008046616A0819424605F10E0104F05AFC43
:1054E000C4F8208000BF40F6F400805940F4005119
:1054F00040F6F400815100BF00BF01E04FF0050904
:105500003046FFF739FADAA0FFF714FA4846BDE84B
:10551000F88F2DE9F04106460F463046FFF70BFAAB
:10552000054615B12846BDE8F08139463046FFF7FB
:1055300089FD47F230513046FFF75FFA044604B95F
:1055400005253046FFF718FA2846ECE72DE9FC411F
:1055500006460F463046FFF7EEF9804606F1160480
:10556000B8F1000F02D04046BDE8FC817868A06029
:105570003889A0810320C4F80E000020122322469F
:105580002421CDE900403046FFF783FA47F230513D
:105590003046FFF732FA05460DB94FF005083046A0
:1055A000FFF7EAF94046DFE72DE9FE4380460E4665
:1055B00015464046FFF7BFF9814608F11604B9F1D8
:1055C000000F02D04846BDE8FE832681012E11D18E
:1055D0002868C4F80A00A888E08105F11E00811F30
:1055E0008A1F931FCDE900210290AA1D2946A6A07B
:1055F000FFF7A0F94FF48060102322464D21CDE93A
:1056000000404046FFF745FA47F230514046FFF769
:10561000F4F907460FB94FF0050986B9D4F80A0026
:105620002860E089A880E07BA17B627BCDE9002136
:105630000290237BE27AA17AA0A0FFF77BF9404693
:10564000FFF79AF94846BEE72DE9FC4781460D462B
:1056500016461F464846FFF76EF9824609F11604C2
:10566000BAF1000F02D05046BDE8FC872581012D1C
:105670000BD11620608130884FF6FF7101EA0010CF
:10568000A081388801EA0010E0814FF48060102387
:1056900022465A21CDE900404846FFF7FAF947F281
:1056A00030514846FFF7A9F98046B8F1000F02D102
:1056B0004FF0050A0CE05DB9A089C11700EB11712C
:1056C00009113180E089C11700EB1171091139808E
:1056D0004846FFF751F95046C6E72DE9FC4106461A
:1056E0003046FFF728F9074606F1160417B1384689
:1056F000BDE8FC8101202081092060814FF4827087
:10570000A081022104F10C00E181442121741021C7
:10571000617440F205106082022104F11200A1823E
:105720000021A175E1754FF483702083022104F1FB
:105730001800618300212177617740F20710E08330
:10574000022104F11E0021843C2122200155002168
:10575000232001554FF48B70A084022104F1240012
:10576000E1843A212820015510212920015540F2D9
:1057700017106085022104F12A00A18500212E2046
:1057800001552F20015540F249102086022104F1D5
:10579000300061860021342001553520015500205C
:1057A000362322467521CDE900403046FFF771F9D6
:1057B00047F230513046FFF720F9054605B9052775
:1057C0003046FFF7D9F8384692E72DE9FC41064606
:1057D0000F463046FFF7AFF8804606F11604B8F1E1
:1057E000000F02D04046BDE8FC8139463FA0FFF7DC
:1057F000A1F8278100200C2322462821CDE9004072
:105800003046FFF746F947F230513046FFF7F5F8DA
:1058100005460DB94FF005083046FFF7ADF8404694
:10582000E1E700002B436D644173736F636961743A
:105830006545787428290D0A00000000576C616ED8
:105840002E436D644173736F636961746545787449
:105850003A2072633D253038782C53433D2530344F
:10586000782C4149443D253034780D0A0000000071
:105870002D436D644173736F63696174654578741A
:1058800028290D0A0000000053657474696E6720B2
:105890004D414320416464723A20253032582D2511
:1058A0003032582D253032582D253032582D2530A4
:1058B00032582D253032580D0A000000476F7420F1
:1058C0004D414320416464723A20253032582D25E1
:1058D0003032582D253032582D253032582D253074
:1058E00032582D253032580D0A000000436D644DAA
:1058F0006163436F6E74726F6C3A20416374696FB9
:105900006E3D3078253034780D0A000002460020C4
:1059100070470246002070472DE9F04F85B00746DA
:105920000D463846FFF707F8049007F1160404F116
:105930004D0003902E4605F1740002904D21204643
:1059400004F0A7FA07F5056104F1080004F0DFF997
:10595000022004F8280F0020A4F801000320E070C2
:1059600006202071A4F128044FF002014FF02D0011
:1059700001554FF0000104F12C00E1854FF00300C8
:1059800084F834004FF001014FF0350001554FF01D
:1059900006014FF0360001554FF0000024F83B0F90
:1059A000A07820F0020000F10200A070A07820F0A2
:1059B000200000F12000A070A4F13B0497F87308C8
:1059C000022801D1012000E0002004F13F0414F876
:1059D000021C60F3041104F8021C9B48016821605A
:1059E000416861608068A060A4F13F0440F2B33177
:1059F00004F14D004FF04D032246CDE900014FF078
:105A00002B013846FFF745F847F230513846FEF78C
:105A1000F4FF8046B8F1110F01D2052004900498DC
:105A2000002873D14FF41171284604F054FA0398FA
:105A300050F80B1F7160808830810020C5F840024B
:105A40000C2028676FF0090070632020F063B4F821
:105A50003D100298418197F87308022801D1012076
:105A600000E000203063002086F85C0007F5056048
:105A700004F071F9F06007F5056004F06CF98146F7
:105A80004A4607F5056106F1100004F0C8F9352013
:105A9000005D00F1020B05F17400296F01EB0009B4
:105AA000CA465A4604F13401504604F073F9032003
:105AB00086F838009AF8020000EB800000F66710C4
:105AC000B0649AF80200C5F82C02286F5844286781
:105AD0002D20005D00F1020905F17400296F01EB32
